:0106000000F9
:0300000002AAE76A
:06AAE70075812002AB287E
:10BCAF000075CEA575CF5A0075CEA575CF5A00C2B7
:10BCBF00AF12C3C6D2AF0075CEA575CF5A0075CEE1
:10BCCF00A575CF5A0012005290065EE0FF30E006D5
:10BCDF0054FEF012C68D90065EE0FF30E10654FD73
:09BCEF00F01291F812894E80CE8A
:10B72F00001600444C30334C2D5630312E30300F34
:10B73F00010100001111111111FFFFFFFFFFFFFFAA
:10B74F00FFFFFFFF00000000000000005A00000094
:10B75F00001D0000000000000000000000000000BD
:10B76F0000000000000000000000000000000000CA
:10B77F00000000000000000F0101FFFFFFFFFFFFAF
:04B78F00FFFF0000B8
:10C6B300E490065EF0A3F09006627403F07B017AC7
:10C6C300067966900217E4F0A304F0A304F07D67F3
:05C6D3007C0002A56ED1
:10BF280075CEA575CF5A0075CEA575CF5A0012B536
:10BF38002675CEA575CF5A0075CEA575CF5A0012B5
:10BF4800BD4175CEA575CF5A0075CEA575CF5A00DF
:10BF5800125DF175CEA575CF5A0075CEA575CF5A6D
:02BF68000022B5
:10A94B0000020000002001020020002A1402004A2D
:10A95B0000551B0201A7001A1902009F00094602AD
:10A96B0000A80036150200DE002652020104001A70
:10A97B005302011E001E5402013C00621A02019E8A
:10A98B00000965020400004E6602044E004E670289
:10A99B00049C004E680204EA004E69020538004E22
:10A9AB006A020586004E6B0205D4004E6C0206222D
:10A9BB00004E6D020670004E6E0206BE004E6F0218
:0AA9CB00070C004E7002075A004E00
:10938B00900005E0FEA3E0FF900009E0FD7C007B70
:01939B0002CF
:10939C0090018AEEF0A3EFF0A3ECF0A3EDF0A3EBB9
:0193AC00F0D0
:1093AD0090021074A5F0A3745AF090018CE0FEA306
:1093BD00E0FFD39400EE94005003029448EF9480A4
:1093CD00EE940090018F40057480F08002EFF07BE9
:1093DD00017A01799090018AE0FCA3E0FD90018F64
:1093ED00E0FF900217E4F0A3EFF090018EE0900201
:1093FD0019F012A56E7B017A01799090018FE0FD35
:10940D007C00E4900217F0A3F012C461900211E009
:10941D002FF0900210E03EF090018FE0FF7E009063
:10942D00018BE02FF090018AE03EF0C390018DE0BA
:10943D009FF090018CE09EF00293B7900210E0FE39
:03944D00A3E0FF9A
:0194500022F9
:08A68B0090018AEEF0A3EFF04C
:10A69300E4FFEF75F006A4244CF582E434A9F583B6
:10A6A300E4936D7068ED640260037FFF22EF75F041
:10A6B30006A4244DF582E434A9F583E493FB7401E5
:10A6C3009390018CCBF0A3EBF0EF75F006A4244F2D
:10A6D300F582E434A9F583740193F990018CE0FACF
:10A6E300A3E0FBC390018BE09B90018AE09A401D9D
:10A6F300E9FB90018DE02BFB90018CE03400FAC361
:10A7030090018BE09B90018AE09A5001220FEF6445
:08A7130017600302A6957FFF09
:01A71B00221B
:108A3C00900005E0FCA3E0FD2400FFEC3402FE9066
:0F8A4C000009E02402FBE433FA9000127422F0D8
:108A5B0090000CEEF0A3EFF0A3ECF0A3EDF0A3EA83
:048A6B00F0A3EBF099
:108A6F00900010E0FEA3E0FFD39400EE94005003BB
:108A7F00028B26D3EF9480EE940090009340057400
:108A8F0080F08002EFF07B017A00791390000EE006
:108A9F00FCA3E0FD900093E0FF900217E4F0A3EF3A
:108AAF00F0900012E0FFC4540F900219F012A56E5F
:108ABF0075CEA575CF5A0075CEA575CF5A007B011F
:108ACF007A007913900093E0FD90018FE4F0A3ED0D
:108ADF00F0900012E0540F900191F090000CE0FE26
:108AEF00A3E0FF12A15C900093E0FFFD7C009000DB
:108AFF000DE02DF090000CE03CF090000FE02DF019
:108B0F0090000EE03CF0C3900011E09FF090001039
:078B1F00E09400F0028A6FF0
:018B2600222C
:109F620090009EEEF0A3EFF0A3ECF0A3EDF0AF03B0
:109F72007B017A0079A4AD0790017DE4F0A374809F
:109F8200F012C59C9000A0E0FEA3E0FFD39400EE87
:109F920094004069D3EF9480EE9400900124400530
:109FA2007480F08002EFF090009EE0FEA3E0FF7B61
:109FB200017A0079A4900124E0FD90018FE4F0A3DE
:109FC200EDF09000A3E0900191F012A15C75CEA596
:109FD20075CF5A0075CEA575CF5A00900124E0FFC7
:109FE2007E0090009FE02FF090009EE03EF0C39034
:0D9FF20000A1E09FF09000A0E09EF08087AD
:019FFF00223F
:0BA56300900217E4F0A37402F0A3F0D4
:10A56E00900212EBF0A3EAF0A3E9F0A3ECF0A3ED56
:01A57E00F0EC
:10A57F00900219E024FE604B047069900215E0FE12
:10A58F00A3E0AA06F990021A7401F0A3EAF0A3E976
:10A59F00F090021AE0F9A3E0FAA3E0900220C9F0CC
:10A5AF00A3EAF0A3E9F0900217E0FFA3E0900223E3
:10A5BF00CFF0A3EFF0900212E0FBA3E0FAA3E0F9D3
:10A5CF0002B916900212E0FBA3E0FAA3E0F9A3E0B0
:10A5DF00FCA3E0FDA3E0FFA3E0900222CFF0A3EFE6
:07A5EF00F0029E2212C9399F
:01A5F6002242
:10A13B00900001EEF0A3EFF09000077A007901E0B8
:10A14B00FEA3E0FF7B0190018FE4F0A37402F0A368
:01A15B00F013
:10A15C0090018AEEF0A3EFF0A3EBF0A3EAF0A3E9F1
:01A16C00F002
:10A16D00900191E024FE603C04705A90018AE0FE5B
:10A17D00A3E0AA06F97B01C002C001A3E0F9A3E0A8
:10A18D00FAA3E0900220C9F0A3EAF0A3E9F0900150
:10A19D008FE0FFA3E0900223CFF0A3EFF0D001D02A
:10A1AD000202B91690018AE0FEA3E0FFA3E0FBA333
:10A1BD00E0FAA3E0F9A3E0FDA3E0900197CDF0A3B1
:08A1CD00EDF002A09E12C93959
:01A1D5002267
:107F410090017BEBF0A3EAF0A3E9F0900179EEF068
:037F5100A3EFF0AB
:107F5400900180E0FD12A68B900181EFF0C394178D
:107F6400400312C939900181E0FF75F006A4244D45
:107F7400F582E434A9F583E493FC740193FD900144
:107F840084ECF0A3EDF0EF75F006A4244FF582E441
:107F940034A9F58374019324FE900188F02DFEE446
:107FA4003C900186F0A3CEF0900181E075F006A428
:107FB400244BF582E434A9F583E493900189F0908D
:107FC4000179E0FEA3E0FFA3E0FBA3E0FAA3E0F95C
:107FD400A3E0FDA3E090018FCDF0A3EDF09001802C
:107FE400E0900191F012A15C900184E0FEA3E0FF17
:107FF400900188129396900182EEF0A3EFF0900125
:10800400867A01798212A14A900189E0C39464506E
:108014004890017AE02400FF900179E03402FE9058
:10802400017BE0FBA3E0FAA3E0F9A3E0FDA3E09069
:10803400018FCDF0A3EDF0900180E0900191F0125A
:10804400A15C900187E02400FF900186E03402FEE9
:098054007B017A01798212A1512D
:01805D002200
:10827C00E4FEEE75F006A4244BF582E434A9F583F4
:10828C00E4936F60050EEEB417E8EEC39417400349
:10829C0002837CEE75F006A4244DF582E434A9F536
:1082AC0083E493FD74019390000CCDF0A3EDF0EEFC
:1082BC0075F006A4244FF582E434A9F58374019378
:1082CC0024FEFCE49334FF90000EF0A3CCF0EF24DA
:1082DC00EB602224CF602E24F4603A1460471460C3
:1082EC00542440707290000CE0FEA3E0FF7BFF7AF8
:1082FC00B7793E804E90000CE0FEA3E0FF7BFF7A46
:10830C005C792A803E90000CE0FEA3E0FF7BFF7AB4
:10831C00A979D5802E90000CE0FEA3E0FF7BFF7ABC
:10832C00A179D6801E90000CE0FEA3E0FF7BFF7AC3
:10833C00A179F0800E90000CE0FEA3E0FF7BFF7AA9
:10834C00A2790EA3E0FDA3E090018FCDF0A3EDF098
:10835C00A37402F002A15C90000CE0FEA3E0FFA36A
:10836C00E0FCA3E0FD9000A37402F0E4FB129F621A
:01837C0022DE
:10617200E4900000F0900000E0F9C394174003029D
:106182006321E490000AF0900000E0FF75F006A49D
:10619200244DF582E434A9F583E493FD74019390D0
:1061A2000005CDF0A3EDF0EF75F006A4244FF582C3
:1061B200E434A9F58374019324FE900009F0FB7A7C
:1061C20000900005E0FCA3E0FD2BFEEA3CA3F0A357
:1061D200CEF0E975F006A4244BF582E434A9F583E8
:1061E200E49390000BF075CEA575CF5A0075CEA53D
:1061F20075CF5A00AF05AE04AD031293989000011B
:10620200EEF0A3EFF07B017A007903900007E0FC47
:10621200A3E0FD12A563900003E0FEA3E0FF90005F
:1062220001E06E7003A3E06F600790000AE0440192
:10623200F090000BE0C39464504B900006E0240001
:10624200FF900005E03402FE129393900001EEF0FD
:10625200A3EFF07B017A007903900008E02400FDAF
:10626200900007E03402FC12A563900003E0FEA355
:10627200E0FF900001E06E7003A3E06F6007900002
:106282000AE04402F075CEA575CF5A0075CEA57509
:10629200CF5A0090000AE0606F24FE60341460441C
:1062A2002402706190000BE0C394645014900005C6
:1062B200E0FEA3E0FF2400FDEE3402FC128A4B80D4
:1062C2001390000BE0FF12827C12938B12A13B8091
:1062D20003128A3C75CEA575CF5A0075CEA575CF2F
:1062E2005A00802490000BE0FF12827C12938B12E2
:1062F200A13B75CEA575CF5A0075CEA575CF5A00B4
:10630200128A3C800312C93975CEA575CF5A007521
:0F631200CEA575CF5A00900000E004F00261772D
:016321002259
:05951300900095EFF04F
:10951800E4A3F0900096E0F9C3941740030295D2B3
:10952800E0FE75F006A4244DF582E434A9F583E441
:1095380093FC740193FDEE75F006A4244FF582E4C4
:1095480034A9F58374019324FE2DFEE43C90009920
:10955800F0A3CEF0E975F006A4244BF582E434A913
:10956800F583E493FF90009BF0BF4608900095E0D8
:1095780064A5704D75CEA575CF5A0075CEA575CF6B
:109588005A00E4900097F0A3F0900099E0FEA3E061
:10959800FF7B017A00799712A15190009BE0C39458
:1095A80064501EE4900097F0A3F090009AE0240025
:1095B800FF900099E03402FE7B017A00799712A1AE
:0A95C80051900096E004F002951B9C
:0195D2002276
:01005200228B
:10BCF80012C784EF6401702C900673E0C39403505C
:10BD080037E004F0E0C39403402E900666E0645ADE
:10BD18007026900674E06401601E12360190067465
:10BD28007401F022900673E0D394004003E014F00D
:09BD3800900673E07002A3F022F2
:10C925007B017A06797090017DE4F0A37405F0E44B
:04C93500FD02C59C9E
:10C7FA00E4FFE5A15403640160050FEFB41EF3EFF3
:0AC80A00C3941950037F01227F0040
:01C814002201
:10C61800900660E5A1F0758F019004027486F0E43D
:10C62800F58F75A001FF7E807D0CFC128CF812AB93
:07C638006D1203EE02C6D8EB
:10C3910012617275CEA575CF5A0075CEA575CF5AAB
:10C3A1000012C6B312C9E512C92512C9E812C0E4C8
:10C3B10012C8E212BDD312C35B12C8B212B9D012B5
:05C3C100665A02B6C936
:10A83500900660E0543C24FC601A24FC703A7F00CA
:10A845007E007D647C00128CF812C7A2129AC41295
:10A85500ACEC80247F007E007D647C00128CF8E5E2
:10A865009670159004E5E0D394004003E014F09051
:10A8750004E5E0700312C9A975CEA575CF5A007518
:10A88500CEA575CF5A0012C546BF01047D018002D1
:10A895007DFF7F061295D312C7FABF010312C9398E
:10A8A500E4FD7F0112C15C75CEA575CF5A0075CE4A
:0BA8B500A575CF5A0012BADC02BADC15
:10B1A20012C98912C7A27F007E007D647C00128CC6
:10B1B200F8129A157FC87E0012C89975CEA575CF70
:10B1C2005A0075CEA575CF5A0012C39112C95F12EB
:10B1D200C9897F2C7E0112C9D17F2C7E0112C9D769
:10B1E20012C7A27FFF12C325E4FF12BA2C7F0112FD
:10B1F200BA2CE4FF123A6D9006437404F090063FB5
:10B20200F07DFFFF1295D343A54043A44043A640DF
:04B2120053ADBF2257
:10C3C60012C61812C9CA75CEA575CF5A0075CEA564
:10C3D60075CF5A0012C7FAEF70089006617403F021
:10C3E6008005E4900661F0900661E0B4030302A8BC
:05C3F6003512B1A22286
:10894E0012C7FAEF64017003028A3B7F647E001245
:10895E00C89975CEA575CF5A0075CEA575CF5A009C
:10896E0012C7FAEF64017003028A3B7F647E001225
:10897E00C89975CEA575CF5A0075CEA575CF5A007C
:10898E001203EE12C6D87B017A05793890017EE487
:10899E00F0A3741EF0A37402F0E4FFFE127F417B7D
:1089AE00017A06792890017EE4F0A37407F0A3748F
:1089BE0002F07F9F7E00127F4175CEA575CF5A00C3
:1089CE0075CEA575CF5A009006437404F07D01FF55
:1089DE001295D39006467404F0900642F07DFF7F08
:1089EE00071295D312BDD312AB6D9028ACE0441094
:1089FE00F0A3E04410F09028C87403F043880443B9
:108A0E00A80443A54043A44043A64053ADBF120360
:108A1E00EE12C6D812C9A912C7FABF010312C9397C
:0E8A2E00E4FD7F0112C15C12BADC12BADC2238
:10C9390075CEA575CF5A0075CEA575CF5A000000E2
:03C949000080FB70
:0300030002004EAA
:04004E005388FD32A4
:03000B0002AC6ED6
:10AC6E00C0E0C083C082C0D0758A55758C15900621
:10AC7E005EE04401F09005F8E004F070069005F7F0
:10AC8E00E004F0900602E004F07006900601E00485
:10AC9E00F09005FBE0B4011BD39005FAE094009010
:10ACAE0005F9E09400400CA3E024FFF09005F9E0D4
:10ACBE0034FFF0900605E0B4011BD3900604E09437
:10ACCE0000900603E09400400CA3E024FFF09006F1
:0EACDE0003E034FFF0D0D0D082D083D0E0323B
:0300130002C5F033
:10C5F000C0E0C0F0C083C082C0D075D0105388F7AF
:10C6000012C866BF010790065EE04404F0D0D0D0A7
:08C6100082D083D0F0D0E032AB
:03001B0002C9DD3A
:04C9DD0053887F32CA
:03002B0002C9E126
:04C9E10053C87F3286
:03003B0002C8CB2D
:10C8CB00C0E0E5C030E00553C0FE8008E5C030E1B4
:07C8DB000353C0FDD0E03261
:0300430002583A26
:0D583A00C0E0C0F0C083C082C0D075D010A7
:10584700902840E0FF902843E05F9002B6F0E02008
:10585700E0030258DD902840E054FEF0902826E04F
:1058670054FDF09002B7E0D394004057A3E0FC2426
:10587700BBF582E43402F583E09002B5F090032291
:10588700E0B407169002B5E0FE547FFD30D006EE77
:105897004480F080059002B5EDF09002B5E09028C5
:1058A70027F09005F7E4F0A3F074BB2CF582E434FD
:1058B70002F583E4F09002B8E004F09002B7E01438
:1058C700F080139002B8E4F090031F7404F012BE46
:1058D7005FE4FF12A7A99002B6E0FF30E14B9028E2
:1058E70040E054FDF0902826E054FEF0A3E090023B
:1058F700B5F09005F7E4F0A3F09002B5E0547FFE11
:105907009002B8E024BBF582E43402F583EEF09010
:1059170002B8E004F0E0FED3940440020000EE7504
:10592700F064849002B8E5F0F0EF20E2030259B882
:10593700902840E054FBF0902836E054FDF09003A7
:1059470023E0D394004057A3E0FC2427F582E434F6
:1059570003F583E09002B5F090038EE0B40716904C
:1059670002B5E0FE547FFD30D006EE4480F080059E
:105977009002B5EDF09002B5E0902837F09006015F
:10598700E4F0A3F074272CF582E43403F583E4F004
:10599700900324E004F0900323E014F080139003B5
:1059A70024E4F090038B7404F012BEA27F0112A7C7
:1059B700A99002B6E0FF30E34B902840E054F7F09F
:1059C700902836E054FEF0A3E09002B5F09006016F
:1059D700E4F0A3F09002B5E0547FFE900324E024A6
:1059E70027F582E43403F583EEF0900324E004F016
:1059F700E0FED3940440020000EE75F06484900347
:105A070024E5F0F0EF30E407902840E054EFF09001
:105A170002B6E030E507902840E054DFF09002B688
:105A2700E0FF30E607902840E054BFF0EF30E70D85
:105A3700902840E0547FF0900558E004F05391EF30
:0B5A4700D0D0D082D083D0F0D0E0326D
:03004B0002B7F702
:0BB7F700C0E0C083C082C0D075D0103D
:10B80200902848E0FF90284BE05FFD30E407902845
:10B8120048E054EFF0AF15ED30E507902848E054CA
:10B82200DFF0AF15ED30E614902848E054BFF090F9
:10B83200065EE04402F090058F7401F0AF15ED3022
:0CB84200E707902848E0547FF05391DFA6
:09B84E00D0D0D082D083D0E032CA
:0300530002C4EEF6
:0BC4EE00C0E0C083C082C0D075D01039
:10C4F900902850E0FF902853E05FFF30E307902831
:08C5090050E054F7F05391BF1C
:09C51100D0D0D082D083D0E032FA
:10A309007B017A00790012B8B77B017A00790012D3
:10A31900876EEF70647B017A007900900217F0A3D1
:10A329007407F0A37402F07D9F7C0012A56E7B0177
:10A339007A00790012876EEF70369000007403F08E
:10A34900A37416F0A37404F0A37420F0A37412F09C
:10A35900A37430F0A3F07B017A00790090017EE4C8
:10A36900F0A37407F0A37402F07F9F7E00127F416F
:10A379007B017A00790012B5909002207401F0A354
:10A389007400F0A37400F0A3E4F0A37407F07B0158
:07A399007A06792802B916CB
:03C9E50002A309A1
:10C68D0012A270E4900000F0900000E0FFC394024D
:10C69D005013128C10900000E0FF12ADE4900000DA
:05C6AD00E004F080E351
:01C6B2002265
:1091F80012A309126AE075CEA575CF5A0075CEA5DF
:1092080075CF5A0012771075CEA575CF5A0075CE56
:10921800A575CF5A0012B21675CEA575CF5A00752E
:10922800CEA575CF5A0012511275CEA575CF5A002A
:1092380075CEA575CF5A0012B66275CEA575CF5AF0
:109248000075CEA575CF5A0012ABEF75CEA575CFB8
:109258005A0075CEA575CF5A0012B5F975CEA57509
:10926800CF5A0075CEA575CF5A0012BCF812C35B51
:1092780012C12090062EE070361255E275CEA57503
:10928800CF5A0075CEA575CF5A0012B9D075CEA5A4
:1092980075CF5A0075CEA575CF5A0012A43775CE72
:1092A800A575CF5A0075CEA575CF5A0012A5F790AF
:0A92B800062EE0B4310312C8B22202
:0B98B100E0FCA3E0A3FDE09002B1F09A
:1098BC009002ACEBF0A3EAF0A3E9F0A3ECF0A3ED7B
:0198CC00F0AB
:1098CD00E49002B4F09002B274A0F0A304F012C6BA
:1098DD00D89002B4E004F0E0D3940A40037F002254
:1098ED0012C7229002B2E0FF12B44DBF01E0900208
:1098FD00AFE0FF12B44DEF640160037F00229002D0
:10990D00AFA3E0FF12B44DEF640160037F0022129C
:10991D00C7229002B3E0FF12B44DEF640160037FE4
:10992D0000229002B1E0FF14F0EF6026E07003FF1B
:10993D0080027F0112B8579002ACE0FBA3E0FAA3BE
:10994D00E0F9EF121F149002ADE475F001121FE55E
:07995D0080D012C6D87F0183
:0199640022E0
:109CCC00900221EEF0A3EFF0A3EBF0A3EAF0A3E9EE
:019CDC00F097
:109CDD00E4900229F090022774A0F0A304F0001282
:109CED00C6D8900229E004F0E0D3940A40037F0027
:109CFD002212C722900227E0FF12B44DBF01E0905F
:109D0D000221E0FF12B44DEF640160037F00229049
:109D1D000221A3E0FF12B44DEF640160037F002226
:109D2D00900223E0FBA3E0FAA3E0F9121EACFF12B0
:109D3D00B44DEF64016004007F0022900224E475AD
:109D4D00F001121FE5900222E004F070069002214E
:109D5D00E004F0900226E014F0E070C412C6D87F43
:099D6D00057E0012C899007F0177
:019D760022CA
:10AD6900900225EBF0A3EAF0A3E9F0A3ECF0A3ED40
:01AD7900F0E9
:10AD7A00A3E0FFD394004006EFD3948040037F0002
:10AD8A0022E49002ABF07B017A02792B900228121E
:10AD9A0098B1900225E0FBA3E0FAA3E0F9A3129888
:10ADAA00B19002AF7401F0A37402F0A3742BF09077
:10ADBA00022AE09002B2F0900225E0FBA3E0FAA397
:10ADCA00E0F912AE5FEF70037F01229002ABE0045C
:09ADDA00F0E0C3940340AF7F00D8
:01ADE300224D
:10A71C0090019AEEF0A3EFF0A3EBF0A3EAF0A3E91B
:01A72C00F03C
:10A72D00A3E0FFD394004006EFD39480400312C9F9
:10A73D0039E4900220F090019AE0FEA3E0FFA3E03F
:10A74D00FBA3E0FAA3E0F9A3E0900226F0129CCC63
:10A75D007B017A0179A090019AE0FCA3E090019F22
:10A76D001298B69002AF7401F0A37401F0A374A017
:10A77D00F090019FE09002B2F090019CE0FBA3E00D
:10A78D00FAA3E0F912AE5FEF70037F012290022071
:0BA79D00E004F0E0C39403409D7F0047
:01A7A800228E
:109E220090021DEBF0A3EAF0A3E9F0A3ECF0A3ED9E
:019E3200F03F
:109E3300900222E0FEA3E0FFD39400EE9400407C66
:109E4300900220A3E0547FFD600974809D9002245A
:109E5300F080069002247480F0900224E0FDC3EFAA
:109E63009DEE94005007900222A3E0A3F090021D00
:109E7300E0FBA3E0FAA3E0F9A3E0FCA3E0FD90027A
:109E830024E090022AF012AD69EF7002FF229002E3
:109E930024E0FFFD7C0090021EEC8DF0121FE59084
:109EA3000221E02DF0900220E03CF0C3900223E079
:0E9EB3009FF0900222E09400F0029E337F01A7
:019EC100227E
:10A09E00900192EEF0A3EFF0A3EBF0A3EAF0A3E9A8
:01A0AE00F0C1
:10A0AF00900197E0FCA3E0FDD39400EC940040797D
:10A0BF00900192E0FEA3E0FF547FFB600974809B48
:10A0CF00900199F080069001997480F0900199E0C9
:10A0DF00FBC3ED9BEC94005007900197A3E0A3F016
:10A0EF00900194E0FBA3E0FAA3E0F9900199E090CE
:10A0FF00019FF012A71CEF7002FF22900199E0FF61
:10A10F00FD7C00900193E02DF0900192E03CF090E7
:10A11F000195EC8DF0121FE5C3900198E09FF09030
:0BA12F000197E09400F002A0AF7F0158
:01A13A002202
:1003EE0043A40243A50243A60453A4FB53A5FB2238
:10C7220043A40243A50243A60400000000000053F4
:10C73200A6FD53A5FD53A4FD00000000000053A672
:02C74200FB22D8
:10C6D80053A6FD53A5FD53A4FD0000000000004330
:10C6E800A60400000000000043A40243A5020000C5
:05C6F80000000000221B
:10B44D00E4F508F50853A6FBEF30E70843A40243E3
:10B45D00A502800953A6FD53A5FD53A4FDEF25E0DC
:10B46D00FF43A6040000000000000508E508B4082D
:10B47D00D453A6FB43A40243A502750820E4F508A6
:10B48D00E5A720E10F43A60400000000000053A62D
:10B49D00FB7F01220508E508B420E543A604000062
:0CB4AD000000000053A6FB12C6D87F0070
:01B4B9002270
:10B85700E4F508F50943A40243A50253A6FBF5083E
:10B86700E50925E0F50943A604000000000000E50E
:10B87700A730E10343090153A6FB000000000000C5
:10B887000508E508B408D9EF600B53A6FD53A5FDDD
:10B8970053A4FD800643A40243A50243A604000067
:0FB8A7000000000053A6FB43A40243A502AF0913
:01B8B600226F
:06A0000090003F12220156
:10A00600E4FF90288474CCF0E4F0902885E0600AA0
:10A016000FEFD3943240F37F002290003FA3A3A317
:10A02600E0FF902880EFF090003FE0FCA3E0FDA366
:10A03600E0FEA3E0FF780812218F902881EFF090D0
:10A04600003FE0FCA3E0FDA3E0FEA3E0FF781012D2
:10A05600218F902882EFF090003FE0FCA3E0FDA363
:10A06600E0FEA3E0FF781812218F902883EFF0908E
:10A076000043E0FEA3E0F5828E83E4F0FF000FEFDD
:10A08600B432FAE4FF902885E0600A0FEFD39432E9
:07A0960040F37F00227F016F
:01A09D0022A0
:10733D0090288474CCF0E4F0F508902885E0600B7B
:10734D000508E508D3943240F180248F828E83E0C6
:10735D00F508E4F508000508E508B432F8E4F50889
:10736D00902885E0600F0508E508D3943240F1E4DC
:10737D00FFFEFDFC22902880E0FFE4FCFDFE900066
:10738D003F122201902881E0FFE4FCFDFE780812F7
:10739D0021A290004312220190003FE0FCA3E0FDEA
:1073AD00A3E0FEA3E0FFA3E0F8A3E0F9A3E0FAA3B6
:1073BD00E0FBEF2BFFEE3AFEED39FDEC38FC9000D3
:1073CD003F122201902882E0FFE4FCFDFE90004375
:1073DD00122201900043E0FCA3E0FDA3E0FEA3E038
:1073ED00FF78101221A290004312220190003FE07D
:1073FD00FCA3E0FDA3E0FEA3E0FFA3E0F8A3E0F90A
:10740D00A3E0FAA3E0FBEF2BFFEE3AFEED39FDEC26
:10741D0038FC90003F122201902883E0FFE4FCFD30
:10742D00FE900043122201900043E0FCA3E0FDA377
:10743D00E0FEA3E0FF78181221A290004312220172
:10744D0090003FE0FCA3E0FDA3E0FEA3E0FFA3E07E
:10745D00F8A3E0F9A3E0FAA3E0FBEF2BFFEE3AFE71
:10746D00ED39FDEC38FC90003F12220190003FE019
:0A747D00FCA3E0FDA3E0FEA3E0FF86
:0174870022E2
:03C9E80002BB2F60
:106AE000900661E07023902864E054076407601901
:106AF000E04407F09000437410F0A374EFF07FBC03
:106B00007E747D937C8812A000900661E0FF640192
:106B10006004EFB40223902864E054076403601912
:106B2000E04403F09000437410F0A374EFF07F9CF6
:106B30007E3C7D1D7C9112A000902858E0544B644F
:106B40004B6003744BF090000012220D0000000017
:106B50007F787E2812733D90000012220190000081
:106B6000A3A3A3E0FFE4FEFDFC7B57FAF9F8C312F0
:106B7000217E60159000437428F0A37478F07F574D
:106B80007E007D007C0012A00090000012220D000B
:106B90000000007F797E2812733D900000122201D0
:106BA000900000A3A3A3E0FFE4FEFDFCFBFAF9F8CC
:106BB000C312217E60159000437428F0A37479F00D
:106BC0007F007E007D007C0012A000900000122259
:106BD0000D000000007F7A7E2812733D90000012A5
:106BE0002201900000A3A3A3E0FFE4FEFDFC7B7064
:106BF000FAF9F8C312217E60159000437428F0A3BF
:106C0000747AF07F707E007D007C0012A0009000FE
:106C10000012220D000000007F7D7E2812733D903F
:106C20000000122201900000A3A3A3E0FFE4FEFDF8
:106C3000FC7BDAFAF9F8C312217E601590004374E8
:106C400028F0A3747DF07FDA7E007D007C0012A026
:046C500000025FB42B
:103A6D00900000EFF0BF030C9028637480F0A3E486
:103A7D00F0D28422C2849000437428F0A3747DF0A8
:103A8D007F007E007D007C0012A000900043742812
:103A9D00F0A37478F07F007E007D007C0012A00002
:103AAD009028637480F0A3E4F0900000E07023FF91
:103ABD00FE7D32FC129965902864E04407F0900079
:103ACD00437410F0A374EFF07FBC7E747D937C88FB
:103ADD008031900000E0FF64016004EFB402297FA3
:103AED00007E807D0C7C00129965902864E0440373
:103AFD00F09000437410F0A374EFF07F9C7E3C7D3A
:103B0D001D7C9112A000800312C939902858744B66
:103B1D00F09000437410F0A374F4F07F667E4B7D3B
:103B2D006C7C0312A0009000437410F0A374FAF0A3
:103B3D007F667E4B7D6C7C0312A000900043741059
:103B4D00F0A374F0F07F007E007D007C0012A000D9
:103B5D009000437410F0A374F1F07F007E007D009F
:103B6D007C0012A0009000437410F0A374F2F07F5B
:103B7D00007E007D007C0012A0009000437410F0C8
:103B8D00A374F3F07F007E007D007C0012A00090F6
:103B9D0000437410F0A374F6F07F007E007D007C6E
:103BAD000012A0009000437410F0A374F7F07F0092
:103BBD007E007D007C0012A0009000437410F0A3E5
:103BCD0074F8F07F007E007D007C0012A000900054
:103BDD00437410F0A374F9F07F007E007D007C002B
:103BED0012A0009000437428F0A3747DF07FC87E6E
:103BFD00007D007C0012A0009000437428F0A37497
:103C0D007DF07F087E007D007C0012A000900043B7
:103C1D007428F0A3747DF07F007E007D007C00127F
:103C2D00A0009000437410F0A374F0F07F007E00AC
:103C3D007D007C0012A0009000437410F0A374F17D
:103C4D00F07F007E007D007C0012A0009000437488
:103C5D0010F0A374F2F07F007E007D007C0012A0B6
:103C6D00009000437410F0A374F3F07F007E007D8C
:103C7D00007C0012A0009000437410F0A374F6F0C5
:103C8D007F007E007D007C0012A000900043741028
:103C9D00F0A374F7F07F007E007D007C0012A00081
:103CAD009000437410F0A374F8F07F007E007D0047
:103CBD007C0012A0009000437410F0A374F9F07F03
:103CCD00007E007D007C0012A0009000437410F077
:103CDD00A374F5F07F017E007D007C0012A00090A2
:103CED0000437410F0A374FBF07F017E007D007C17
:103CFD000012A0009000437410F0A374FCF07F003C
:103D0D007E007D007C0012A0009000437428F0A37B
:103D1D007478F07F577E007D007C0012A00090002B
:103D2D00437428F0A37479F07F007E007D007C0041
:103D3D0012A0009000437428F0A3747AF07F707E77
:103D4D00007D007C0012A0009000437428F0A37445
:103D5D007DF07FD27E007D007C0012A0009000439C
:103D6D007410F0A374F0F07F007E007D007C0012D3
:103D7D00A0009000437410F0A374F1F07F007E005A
:103D8D007D007C0012A0009000437410F0A374F22B
:103D9D00F07F007E007D007C0012A0009000437437
:103DAD0010F0A374F3F07F007E007D007C0012A064
:103DBD00009000437410F0A374F6F07F007E007D38
:103DCD00007C0012A0009000437410F0A374F7F073
:103DDD007F007E007D007C0012A0009000437410D7
:103DED00F0A374F8F07F007E007D007C0012A0002F
:103DFD009000437410F0A374F9F07F007E007D00F5
:103E0D007C0012A0009000437428F0A3747DF07F15
:103E1D00DA7E007D007C0012A0009000437428F033
:103E2D00A3747BF07F007E007D007C0012A00090CB
:103E3D0000437428F0A3747CF07F007E007D007C2D
:103E4D000012A0009000437428F0A3747EF07F014F
:103E5D007E007D007C0012A0009000437410F0A342
:103E6D0074FCF07F007E007D007C0012A000902885
:103E7D00C77404F09028ACE054F7F09028AEE054ED
:103E8D00F7F043E801902843E04480F090068D74EC
:033E9D0002F0220E
:10A4CE00EF70797FD87E1012733D90000812220132
:10A4DE00E4FFFEFD7C80900008E0F8A3E0F9A3E025
:10A4EE00FAA3E0FBC312217E4024900008E0FCA3F7
:10A4FE00E0FDA3E0FEA3E0FF12214DEF2401FFE4F7
:10A50E003EFEE43DFDE43CFC90000812220190006A
:10A51E0008E0FCA3E0FDA3E0FEA3E0FFE4121DEDC6
:10A52E00900581E0F8A3E0F9A3E0FAA3E0FB121B8B
:10A53E00DA121E2B90000C122201800A90000C12CF
:10A54E00220D0000000090000CE0FCA3E0FDA3E053
:04A55E00FEA3E0FF79
:01A5620022D6
:0575D000900008EFF03F
:1075D500640170627FD47E1012733D9000091222FF
:1075E50001E4FFFEFD7C80900009E0F8A3E0F9A32B
:1075F500E0FAA3E0FBC312217E4024900009E0FCE1
:10760500A3E0FDA3E0FEA3E0FF12214DEF2401FF5F
:10761500E43EFEE43DFDE43CFC90000912220190AD
:107625000009E0FCA3E0FDA3E0FEA3E0FFE4121DDA
:10763500ED900585806B900008E064046003027698
:10764500D37FD57E1012733D900009122201E4FF0D
:10765500FEFD7C80900009E0F8A3E0F9A3E0FAA321
:10766500E0FBC312217E4024900009E0FCA3E0FD6D
:10767500A3E0FEA3E0FF12214DEF2401FFE43EFE4F
:10768500E43DFDE43CFC900009122201900009E074
:10769500FCA3E0FDA3E0FEA3E0FFE4121DED9005D1
:1076A50089E0F8A3E0F9A3E0FAA3E0FB121BDA9066
:1076B5000011122201900011E0FCA3E0FDA3E0FE01
:1076C500A3E0FF121E2B90000D122201800A9000EC
:1076D5000D12220D00000000E47F0AFEFDFC900063
:1076E5000DE0F8A3E0F9A3E0FAA3E0FBC312217EC5
:1076F500500A90000D12220D0000000090000DE0D0
:0A770500FCA3E0FDA3E0FEA3E0FFFB
:01770F002257
:05748800900008EFF088
:10748D006401705E90068EE054FEF07FD17E101286
:10749D00733D900009122201E4FFFEFD7C809000F7
:1074AD0009E0F8A3E0F9A3E0FAA3E0FBC312217E03
:1074BD00500302755C900009E0FCA3E0FDA3E0FE23
:1074CD00A3E0FF12214DEF2401FFE43EFEE43DFD5C
:1074DD00E43CFC90000912220190068EE04401F07C
:1074ED00806D900008E06404705B90068EE054FDA2
:1074FD00F07FD27E1012733D900009122201E4FF3D
:10750D00FEFD7C80900009E0F8A3E0F9A3E0FAA36A
:10751D00E0FBC312217E4037900009E0FCA3E0FDA3
:10752D00A3E0FEA3E0FF12214DEF2401FFE43EFE98
:10753D00E43DFDE43CFC90000912220190068EE032
:10754D004402F0800A90000912220D00000000E4B0
:10755D007FB07E24FDFC900009E0F8A3E0F9A3E0E4
:10756D00FAA3E0FBC312217E502690000D12220DCE
:10757D0000000000900008E0FDB4010790068EE0C9
:10758D0054FEF0EDB4042D90068EE054FDF08024F1
:10759D00900009E0FCA3E0FDA3E0FEA3E0FFE412F0
:1075AD001DED90AA1F1221F1121BDA121E2B900055
:1075BD000D12220190000DE0FCA3E0FDA3E0FEA35F
:0275CD00E0FFDD
:0175CF002299
:10C02E00EF70217FFD7E1012733DAB07AA06A905A6
:10C03E00A804E4FFFE7DE27C041220BB90000812EF
:10C04E002201800A90000812220D000000009000CC
:0CC05E0008E0FCA3E0FDA3E0FEA3E0FF6F
:01C06A0022B3
:1071E90090000BEDF0900008EBF0A3EAF0A3E9F0B2
:1071F90090001412220D00000000121EAC54F71268
:107209001F14900008E0FBA3E0FAA3E0F9121EACFA
:1072190054EF121F14900008E0FBA3E0FAA3E0F971
:10722900121EAC54FE121F14900008E0FBA3E0FAF2
:10723900A3E0F9121EAC54FD121F1490000BE0D309
:107249009402400D90001412220D000000000273F8
:107259001F7FD17E1012733D90000C122201E4FFB2
:10726900FEFD7C8090000CE0F8A3E0F9A3E0FAA30E
:10727900E0FBC312217E403790000CE0FCA3E0FD47
:10728900A3E0FEA3E0FF12214DEF2401FFE43EFE3F
:10729900E43DFDE43CFC90000C122201900008E062
:1072A900FBA3E0FAA3E0F9121EAC4401121F1490EB
:1072B900000CE0FCA3E0FDA3E0FEA3E0FF900014B6
:1072C900122201E47FB07E24FDFC90000CE0F8A3BB
:1072D900E0F9A3E0FAA3E0FBC312217E5038900045
:1072E9001412220D00000000900014E0FCA3E0FD40
:1072F900A3E0FEA3E0FF9000437410F0A374FCF038
:1073090012A000900008E0FBA3E0FAA3E0F9121E26
:10731900AC54FE121F14900014E0FCA3E0FDA3E09E
:10732900FEA3E0FF9000437410F0A374FCF012A0D8
:03733900007F00D2
:01733C00222E
:10BFEE0003E503E803EC03EF03D903DC03E003E30B
:10BFFE0003D303D603D903DC03C603C903CC03CF93
:10C00E00041004130416041904030407040A040D8F
:10C01E0003FA03FD0400040303ED03F103F403F735
:10C0A800EFB401089028637481F0800BEF6402708C
:10C0B8002A90286374A2F0902864E04408F0A3E072
:10C0C8004401F07F787E2812733DEF4418FF9000FA
:0BC0D800437428F0A37478F012A0005D
:01C0E300223A
:10C51A00902864E054F7F09028637480F0902865BE
:10C52A00E04401F07F787E2812733DEF54F7FF90C4
:0CC53A0000437428F0A37478F002A00005
:10BA85007F0212C0A87F0A7E0012C8997FCE7E1061
:10BA950012733D781012218F900000EEF0A3EFF0A5
:10BAA500EE30E709E4900000F0A3F0801D9000005F
:10BAB500E0FEA3E0FF7C007D47121F5AEF24FBFF49
:10BAC500EE34FF900000F0A3EFF00012C51A9000CD
:06BAD50000E0FEA3E0FF0B
:01BADB002248
:10C3FB007F0112C0A87F0A7E0012C899123EA0903E
:10C40B00068412220112C51AE4FFFE7D207C4190A6
:10C41B000684E0F8A3E0F9A3E0FAA3E0FB121BDA31
:03C42B00121E2BB3
:01C42E0022EB
:103EA0009000137404F0A37420F0E4900012F090DA
:103EB0000012E0FFC394035043EF75F018A4FF9085
:103EC0000014E02FFD900013E035F0FC7E007F151C
:103ED0007B1512C1D27B017A00791590003E7433B4
:103EE000F07D137C0012C63F900034EFF090002963
:103EF000E06F6008900012E004F080B3900015E0DD
:103F0000FCA3E0FDA3E0FEA3E0FF90002C12220141
:103F10007B017A00792C7D04129B7390002CE0FCCD
:103F2000A3E0FDA3E0FEA3E0FF90001512220190A4
:103F30000019E0FCA3E0FDA3E0FEA3E0FF90002C4D
:103F40001222017B017A00792C7D04129B73900070
:103F50002CE0FCA3E0FDA3E0FEA3E0FF900019121B
:103F6000220190001DE0FCA3E0FDA3E0FEA3E0FF22
:103F700090002C1222017B017A00792C7D04129B87
:103F80007390002CE0FCA3E0FDA3E0FEA3E0FF9013
:103F9000001D122201900021E0FCA3E0FDA3E0FE41
:103FA000A3E0FF90002C1222017B017A00792C7D86
:103FB00004129B7390002CE0FCA3E0FDA3E0FEA3A1
:103FC000E0FF900021122201900025E0FCA3E0FD1B
:103FD000A3E0FEA3E0FF90002C1222017B017A00F7
:103FE000792C7D04129B7390002CE0FCA3E0FDA3D0
:103FF000E0FEA3E0FF9000251222017FCE7E10128A
:10400000733D781012218F9000351222017E007FBF
:104010002A902862E0543E24EEF582E434BFAD825B
:10402000FC7B0212C1D290002AE0FEA3E0FFE4FC78
:10403000FD900035E0F8A3E0F9A3E0FAA3E0FB125D
:104040002030E47BE87A03F9F81220BB90003512A7
:104050002201900029E0FF900034E06F6032900070
:104060001512220D0000466290001912220D000068
:10407000000190001D12220D0D5A433690002112AE
:10408000220D00001BB490002512220D0000000A32
:10409000900035E0FCA3E0FDA3E0FEA3E0FF90006C
:1040A00021E0F8A3E0F9A3E0FAA3E0FB12203090AE
:1040B000001DE0F8A3E0F9A3E0FAA3E02FFFEA3E39
:1040C000FEE93DFDE83CFCE4121DED129C24C00419
:1040D000C005C006C007900019E0FCA3E0FDA3E006
:1040E000FEA3E0FFE4121DEDD003D002D001D0000A
:1040F000121BDAC004C005C006C007900015E0FC22
:10410000A3E0FDA3E0FEA3E0FFE4121DEDA804A9D7
:1041100005AA06AB07D007D006D005D004121AE5D1
:10412000C004C005C006C007900025E0FCA3E0FD68
:10413000A3E0FEA3E0FFE4121DEDA804A905AA0672
:10414000AB07D007D006D005D004121CE390003096
:104150001222019000137404F0A37480F0E4900024
:1041600012F0900012E0FFC394035046EF75F00484
:10417000A4FF900014E02FFD900013E035F0FC7ECA
:10418000007F2C7B0412C1D27B017A00792C900035
:104190003E7433F07D027C0012C63F90002EEFF09B
:1041A000A3E0FF90002EE06F6008900012E004F0A2
:1041B00080B090002FE0FF90002EE06F6007E49049
:1041C000002CF0A3F090002CE030E75B90002CE096
:1041D000FEA3E0F4FFEEF4FEEF2401FFE43E9000C6
:1041E0002CF0A3EFF0900030E0FCA3E0FDA3E0FE94
:1041F000A3E0FFC004C005C006C00790002CE0FE8D
:10420000A3E0FF7C007D0A121F5AAC06AD07E41242
:104210001DF2A804A905AA06AB07D007D006D00551
:10422000D004121AE58038900030E0F8A3E0F9A33A
:10423000E0FAA3E0FBC000C001C002C00390002C64
:10424000E0FEA3E0FF7C007D0A121F5AAC06AD071A
:10425000E4121DF2D003D002D001D000121AE9906E
:104260000030122201E4FFFE7DB47C42900030E079
:10427000F8A3E0F9A3E0FAA3E0FB121D80600E4072
:104280000C90003012220D42B400008024E4FFFEA6
:104290007D2C7CC2900030E0F8A3E0F9A3E0FAA303
:1042A000E0FB121D80500A90003012220DC22C003B
:0F42B00000900030E0FCA3E0FDA3E0FEA3E0FFE0
:0142BF0022DC
:068CF800900000122201B1
:108CFE00E4900004F0C286C285902867E044C0F07C
:108D0E00A3E4F0900000E0FCA3E0FDA3E0FEA3E0EE
:108D1E00FF1222C68D4A000C80008D5200190000F1
:108D2E008D62003200008D6A006400008D7700C8ED
:108D3E0000008D890190000000008D9B902867E057
:108D4E0054FC800A902867E04401F0E054FDF0A343
:108D5E00E4F0803C902867E054FE8006902867E09F
:108D6E004401F0E04402F08027902867E04401F0CF
:108D7E00E04402F0A3E04440F08015902867E04400
:108D8E0001F0E04402F0A3E044C0F0800312C939C0
:108D9E00E5A320E00F900004E004F0E0D39432400D
:108DAE00EF7F0022D280E4900004F020800F90002C
:108DBE0004E004F0E0D3943240F17F002290285F6B
:0D8DCE00E4F0A37403F0A3E04420F07F0163
:018DDB002275
:0699650090000112220136
:10996B00E4900005F0C284902867E044C0F09000BA
:10997B0001E0FCA3E0FDA3E0FEA3E0FF1222C699E9
:10998B00A60000000099AB000C800099B8001900EC
:10999B000099CD00320000000099E2D2847F0122B1
:1099AB00902867E054F3F0E054CFF0802D902867B7
:1099BB00E04404F0E054F7F0E04410F0E054DFF042
:1099CB008018902867E054FBF0E04408F0E054EF77
:1099DB00F0E04420F0800312C939E5A320E00F909A
:1099EB000005E004F0E0D3943240EF7F0022D287F1
:1099FB00E4900005F020870F900005E004F0E0D321
:099A0B00943240F17F00227F013A
:019A1400222F
:10BADC00C286C285902864E4F0902866F09000003D
:10BAEC00F0900000E004F0E0B414F6D284E5A1304C
:10BAFC00E00312C939C2802080FDE5A130E00312B9
:10BB0C00C939E4900000F0900000E004F0E0B403C8
:10BB1C00F6902867E4F0902867E070FAD2817F0AEB
:03BB2C0002C994B7
:07C9CA009028627404F022C2
:109A15009028A8E054F0F09028AAE054F0F090289F
:109A2500C7E4F09028ACE054F7F09028AEE054F786
:109A3500F09028B0E04402F0A3E054FEF09028C96D
:109A4500E4F0A3F09028B2E04402F09028B0E0548E
:109A5500FDF0A3E04401F09028B0E04420F0A3E03D
:109A650054EFF09028CDE4F0A3F09028B2E0442024
:109A7500F09028B0E054DFF0A3E04410F09028AC5B
:109A8500E054FBF09028AEE054FBF043A52043A43E
:109A95002043A50843A4089028ACE04410F0A3E0B7
:109AA5004410F09028C87403F043880443A8044385
:0F9AB500A40243A50243A60453A4FB53A5FB221E
:10AB6D009028A874FFF0A3E4F09028AC74FFF0A334
:10AB7D00E4F09028B074FFF0A3E4F09028B474FFD3
:10AB8D00F0A3E4F09028B874FFF0A3E4F09028BC93
:10AB9D0074FFF0A3E4F09028C074FFF0A3E4F090EC
:10ABAD0028D574FFF0A3E4F09028D974FFF0A3E446
:10ABBD00F09028C7F09028ACE054F7F09028AEE064
:10ABCD0054F7F075A4FFE4F5A59028ACE04410F01F
:10ABDD00A3E04410F09028C87403F043880443A800
:02ABED00042240
:10C7660043A50843A408E4FFE5A720E3050FEFB4BB
:0DC776000AF6EFD3940740037F01227F00F5
:01C783002293
:10C5460043A54043A44043A64053ADBF7F027E00AF
:10C5560012C899E4FFE5A720E6050FEFB40AF6EF47
:0AC56600D3940740037F01227F00F9
:01C5700022A8
:10C86600E4FF9028AFE020E4050FEFB40AF4EFD31D
:09C87600940740037F01227F00BA
:01C87F002296
:10C7840043A52043A420E4FFE5A720E5050FEFB46B
:0DC794000AF6EFD3940740037F01227F00D7
:01C7A1002275
:0EC96E00C28390285EE4F0902C1E74D2F0225A
:10C32500EF543F902C08F0A3F0A3F0A3F0A3F0A3E3
:10C33500F0A3F0A3F0902C12F0A3F0A3F0A3F0A3C8
:10C34500F0A3F0902C28F0A3F0A3F0A3F0A3F0A3A2
:06C35500F0902C30F022F4
:05000600E4FF02C32528
:10C7A20012C96EE4FF12C325902C1FE4F0A374FF9C
:0EC7B200F0A374FCF0A374C0F0A3744FF02247
:10867400121EAC543F902C08F0900001121EC554F9
:108684003F902C09F0900002121EC5543F902C0A12
:10869400F0900003121EC5543F902C0BF090000480
:1086A400121EC5543F902C0CF0900005121EC554A8
:1086B4003F902C0DF0900006121EC5543F902C0ED6
:1086C400F0900007121EC5543F902C0FF090000844
:1086D400121EC5543F902C12F0900009121EC5546E
:1086E4003F902C13F090000A121EC5543F902C1496
:1086F400F090000B121EC5543F902C15F090000C06
:10870400121EC5543F902C16F090000D121EC55435
:108714003F902C17F090000E121EC5543F902C2849
:10872400F090000F121EC5543F902C29F0900010B9
:10873400121EC5543F902C2AF0900011121EC554ED
:108744003F902C2BF0900012121EC5543F902C2CFD
:10875400F0900013121EC5543F902C2DF09000147D
:0A876400121EC5543F902C30F02285
:10C94C009028C77405F09028ACE054F7F0A3E0549D
:03C95C00F7F022CF
:10C880009028C7E4F09028AEE054F7F09028ACE090
:09C8900054F7F0A3E054F7F02284
:0BC9890043E80290284BE04440F022FD
:10C15C00900000EFF0A3EDF07590967597577F3235
:10C16C0012C994900001E0FFF596EFB4070D75DF4E
:10C17C0040900000E0543F25DFF5DF7F3212C99478
:0BC18C007590967597567F3202C9949B
:0BB8B700900007EBF0A3EAF0A3E9F01B
:10B8C200A3E5DAF07F3212C994900007E0FBA3E00F
:10B8D200FAA3E0F9E59E121F14900007E0FBA3E033
:10B8E200FAA3E0F9900001E593121F26900002E509
:10B8F2009F121F26900003E59D121F26900004E56B
:10B902009C121F26900005E59B121F26900006E55B
:04B912009A021F2650
:10B59000900095EBF0A3EAF0A3E9F075909675970B
:10B5A000577F3212C994900095E0FBA3E0FAA3E024
:10B5B000F9121EACF59E900001121EC5F593900085
:10B5C00002121EC5F59F900003121EC5F59D900046
:10B5D00004121EC5F59C900005121EC5F59B900037
:10B5E00006121EC5F59A7F0212C99475909675973A
:09B5F000567F3212C9947F01223A
:10C815007590967597577F3212C994E4F594F595FE
:0BC825007590967597567F3202C994FB
:0867E800900012EEF0A3EFF0A7
:1067F00090001812220D00000000900012E0FEA38D
:10680000E0FFE4FCFDA3122201900016E0D3948087
:1068100050030268A0E0FEA3E0F4FFEEF49000163F
:10682000F0A3EFF0900016E0541FF0A3E0F0E47F37
:1068300014FEFDFC900014E0F8A3E0F9A3E0FAA335
:10684000E0FB122030E47B1EFAF9F81220BB900026
:106850001412220190001812220D0031FFFF900047
:1068600018E0F8A3E0F9A3E0FAA3E0FBC000C00140
:10687000C002C003E47B02FAF9F8900014E0FCA324
:10688000E0FDA3E0FEA3E0FF1220BBD003D002D0C6
:1068900001D000EB2FFFEA3EFEE93DFDE83C8079A8
:1068A000E47F14FEFDFC900014E0F8A3E0F9A3E0FF
:1068B000FAA3E0FB122030E47B1EFAF9F81220BBA9
:1068C00090001412220190001812220D00320000D4
:1068D000900018E0FCA3E0FDA3E0FEA3E0FFC004ED
:1068E000C005C006C007E47B02FAF9F8900014E086
:1068F000FCA3E0FDA3E0FEA3E0FF1220BBA804A9D7
:1069000005AA06AB07D007D006D005D004C3EF9B7D
:10691000FFEE9AFEED99FDEC98FC90001812220112
:10692000900012E0FEA3E0FF7C007D0A121FAFE49E
:10693000FCFDA31222017590967597577F3212C9FC
:1069400094900016E0F594A3E0F595900019E0F519
:10695000DBA3E0F5DCA3E0F5DD7F3212C99475908E
:04696000967597563B
:016964002210
:106F2A007F0112C0A87F0A7E0012C899123EA09063
:106F3A00000712220112C51A90000D12220D000636
:106F4A001A809000117418F09000017404F0A37470
:106F5A008CF0E4900000F0900000E0FFC39403502E
:106F6A0046EF75F004A4FF900002E02FFD900001A7
:106F7A00E035F0FC7E007F037B0412C1D27B017AEC
:106F8A0000790390003E7433F07D027C0012C63F04
:106F9A00900005EFF0A3E0FF900005E06F60089015
:106FAA000000E004F080B0900006E0FF900005E0E9
:106FBA006F6007E4900003F0A3F0900003E0FFA3E2
:106FCA00E090000BCFF0A3EFF0900011E0FCE41288
:106FDA001DF7A804A905AA06AB07900007E0FCA3C1
:106FEA00E0FDA3E0FEA3E0FF121AE5C004C005C05D
:106FFA0006C00790000DE0FCA3E0FDA3E0FEA3E0BD
:10700A00FFEC121DEDD003D002D001D000121BDA22
:10701A00C004C005C006C007900011E0FCE4121DC0
:10702A00F7A804A905AA06AB07900007E0FCA3E0AD
:10703A00FDA3E0FEA3E0FF121AE5D003D002D001BF
:10704A00D000121BDA7B007A2479747849121CE387
:10705A00C004C005C006C00790000BE0FCA3E0FD19
:10706A00EC121DF2D003D002D001D000121AE9129C
:10707A001E2B1267E8900007E0FCA3E0FDA3E0FEE8
:03708A00A3E0FF81
:01708D0022E0
:05000E00D28CD2A922F2
:05001600C28CC2A9220A
:0FC95F00758901438E08758A55758C1502000E77
:10B040009028217420F0EF8EF0122299B0640258FB
:10B05000B07104B0B07E0960B08B12C0B09825808A
:10B060000000B0A59028207482F090282374C78037
:10B070003F9028207482F090282374E48032902836
:10B080002074A2F09028237456802590282074A262
:10B09000F090282374AB801890282074A2F0902898
:10B0A0002374D5800B9028207482F0902823748E0E
:06B0B000F0902825F022BB
:10B0B6009028317420F0EF8EF0122299B0DA0258FF
:10B0C600B0E704B0B0F40960B10112C0B10E25803A
:10B0D6000000B11B9028307482F090283374C7802A
:10B0E6003F9028207482F090283374E480329028B0
:10B0F6003074A2F09028337456802590283074A2BC
:10B10600F090283374AB801890283074A2F0902801
:10B116003374D5800B9028307482F0902833748E67
:06B12600F0902835F02234
:10BE5F009028B2E04420F09028B0E054DFF0A3E047
:10BE6F004410F09028B0E054DFF0A3E04410F090BD
:10BE7F0028CD7402F0A3F09028267450F09028403B
:10BE8F00E054FCF0902843E054FEF0E04402F0430D
:03BE9F00E8012295
:10BEA2009028B2E04402F09028B0E054FDF0A3E004
:10BEB2004401F09028B0E054FDF0A3E04401F0907A
:10BEC20028C97402F0A3F09028367450F0902840EC
:10BED200E054F3F0902843E054FBF0E04408F043D0
:03BEE200E8012252
:08C9B200902843E054FDF0223F
:08C9BA00902843E054F7F0223D
:10C8F900902840E054FCF0902843E04401F0E054D3
:06C90900FDF043E80122ED
:10C90F00902840E054F3F0902843E04404F0E054C2
:06C91F00F7F043E80122DD
:06C9D10012B04002BE5F3F
:06C9D70012B0B602BEA280
:10A7A900EFD39401400302A834EF75F06CA424B7E9
:10A7B900F582E43402F583E4F0EF75F06CA424B873
:10A7C900F582E43402F583E4F0EF75F06CA424B962
:10A7D900F582E43402F583E4F0EF75F06CA424BA51
:10A7E900F582E43402F583E4F0EF75F06CA4241FDC
:10A7F900F582E43403F583E4F0EF75F06CA42422C8
:10A80900F582E43403F5837407F0E4FEEF75F06C28
:10A81900A424BBF582E43402F583E5822EF582E4B3
:0BA829003583F583E4F00EEEB464E12B
:01A834002201
:108C1000EFD394014003028CF7EF75F06CA424B7F6
:108C2000F582E43402F583E060028064EF75F06C55
:108C3000A4241FF582E43403F583E0FEB40302802C
:108C40004FEE64047038EF75F06CA424BAF582E43A
:108C50003402F583E004F0EF75F06CA424BAF582D9
:108C6000E43402F583E0C394025003028CF7EF7002
:108C70000312BE5FEFB4010312BEA202A7A9EF75F3
:108C8000F06CA424B8F582E43402F583E0FE7011A0
:108C9000EF75F06CA424BAF582E43402F583E4F0B5
:108CA00022EF75F06CA4241FF582E43403F583747D
:108CB00001F0EF75F06CA424B9F582E43402F58379
:108CC000E0B50613EF75F06CA424BAF582E4340223
:108CD000F583E004F08010EF75F06CA424BAF582FF
:108CE000E43402F583E4F0EF75F06CA424B9F58266
:078CF000E43402F583EEF00D
:018CF700225A
:0E6DC200900006EBF0A3EAF0A3E9F0A3EDF0D9
:106DD00090000D7407F0EDD39464400690000974A0
:106DE00064F090000CE0D394014003026F29E4FFAB
:106DF000900009E0FEEFC39E5034900006E0FBA334
:106E0000E0FAA3E0F98F82758300121EC5FE9000A0
:106E10000CE075F06CA424BBF582E43402F583E544
:106E2000822FF582E43583F583EEF00F80C2900067
:106E300009E014FF90000CE0FE75F06CA424B7F597
:106E400082E43402F583EFF0EE75F06CA424B8F51B
:106E500082E43402F5837401F0EE75F06CA424B979
:106E6000F582E43402F583E4F0EE75F06CA4241F9F
:106E7000F582E43403F5837403F0C2AFEE75F06C71
:106E8000A42422F582E43403F583E06407703DEE28
:106E900075F06CA424BBF582E43402F583E0FF5462
:106EA0007FFE90000C30D014E075F06CA424BBF58C
:106EB00082E43402F583EF4480F08010E075F06CDA
:106EC000A424BBF582E43402F583EEF0D2AF900047
:106ED0000CE0702790000AE0FEA3E0FF12C9D11277
:106EE000C9B212C8F990000CE075F06CA424BBF58F
:106EF00082E43402F583E0902827F090000CE0B49F
:106F0000012790000AE0FEA3E0FF12C9D712C9BA18
:106F100012C90F90000CE075F06CA424BBF582E45C
:096F20003402F583E0902837F0FB
:016F29002245
:0E906000900038EBF0A3EAF0A3E9F0A3EDF0E6
:10906E00D3940140037F002290003BE075F06CA486
:10907E0024BBF9740235F0FA7B01C003C002C001B3
:10908E00900038E0FBA3E0FAA3E0F912224A900028
:10909E003BE075F06CA424BAF582E43402F583E06B
:1090AE00C3941250037F002290003BE0FF75F06CDA
:1090BE00A424BAF582E43402F583E4F0EF75F06C83
:1090CE00A4241FF582E43403F5837402F0EF7003D9
:1090DE0012C9B290003BE0B4010312C9BA90003B32
:1090EE00E0FF75F06CA424B8F582E43402F583E059
:1090FE00FEEF75F06CA424B8F582E43402F583E437
:10910E00F090003BE075F06CA424B9F582E43402D3
:0E911E00F583E4F0EED3946440027E64AF0665
:01912C002220
:10A9D5000523F8000000000700000000000000004B
:10A9E500D9C42E0000000007000000000000000090
:10A9F5003DE1287C3D9F6DEE3722089D38F50B988B
:10AA050038ADA4430000000008FC00002710036CCB
:10AA15004B665FFFFFFF008F52A53B207A150105AE
:10AA25005910E801056910E901055D287B01056DEF
:10AA3500287C01056110ED01057110EE036C4B6674
:10AA450010F45FFFFFFF10F50000000010EA0000A2
:0AAA5500000010EB0000000010EC00
:10C20C007B017A05795990021774A5F0A3745AF042
:10C21C007D347C0012C46190058DEEF0A3EFF07BB1
:10C22C00017A05795990017EE4F0A37434F0A3747B
:09C23C0002F07FA87E00027F41A0
:10BB2F007B017A05795990017DE4F0A37436F0E436
:10BB3F00FD12C59C7B017A05795990021774A5F007
:10BB4F00A3745AF07D347C0012C46190058DE06EB1
:10BB5F007003A3E06F601A7B017A05795990021781
:10BB6F00E4F0A37436F0A37402F07DA87C0012A554
:01BB7F006E57
:01BB800022A2
:105FB40012BB2FE4900033F0900033E0FF75F0063D
:105FC400A42445F582E434AAF583E493FD74019393
:105FD40090003DCDF0A3EDF0EF75F006A42441F55B
:105FE40082E434AAF5831221E1900039122201904F
:105FF400002F12220D0000000090003DE0FEA3E0FF
:10600400FF12733D90002F122201900039E0FCA38F
:10601400E0FDA3E0FEA3E0FF90002FE0F8A3E0F989
:10602400A3E0FAA3E0FBC312217E6034900039E0C0
:10603400FCA3E0FDA3E0FEA3E0FF90002F122201E9
:1060440090002FE0FCA3E0FDA3E0FEA3E0FF90009E
:106054003DE0FBA3E0900043CBF0A3EBF012A000E3
:10606400900033E004F0E0C394055003025FBCE405
:10607400900033F0900033E0FF75F005A42426F57A
:1060840082E434AAF583E493FD740193900037CD40
:10609400F0A3EDF0EF75F005A42423F582E434AA0F
:1060A400F583E493F9740193FA740293900034C96C
:1060B400F0A3EAF0A3E9F090002F12220D000000F3
:1060C40000900037E0FEA3E0FF12733D90002F1212
:1060D4002201900037E0FEA3E0FF647B7003EE64CE
:1060E40028600AEF647C7003EE6428701B9000340F
:1060F400E0FBA3E0FAA3E0F91221B5900032E06FCF
:10610400605CE4FCFDFE8030900034E0FBA3E0FA28
:10611400A3E0F91221B590002FE0F8A3E0F9A3E081
:10612400FAA3E0FBC312217E6034900034E0FBA3A9
:10613400E0FAA3E0F91221B590002F122201900099
:106144002FE0FCA3E0FDA3E0FEA3E0FF900037E016
:10615400FBA3E0900043CBF0A3EBF012A00090006F
:0D61640033E004F0E0C394065003026078BD
:01617100220B
:087BCC0090002FEFF0A3EDF093
:107BD40075CEA575CF5A0075CEA575CF5A00900005
:107BE4003A12220D00000000E490058FF090003559
:107BF400F090002FE0FF900035E0C39F4003027C2B
:107C0400CA75CEA575CF5A0075CEA575CF5A00900A
:107C1400058FE060FAE490058FF075CEA575CF5A14
:107C24000075CEA575CF5A00900030E070047FD166
:107C340080027FD27E1012733D900031122201E443
:107C4400FFFEFD7C80900031E0F8A3E0F9A3E0FAA8
:107C5400A3E0FBC312217E4024900031E0FCA3E0AA
:107C6400FDA3E0FEA3E0FF12214DEF2401FFE43E5B
:107C7400FEE43DFDE43CFC90003112220190003111
:107C8400E0FCA3E0FDA3E0FEA3E0FF900036122297
:107C94000190003AE0FCA3E0FDA3E0FEA3E0FF9026
:107CA4000036E0F8A3E0F9A3E0FAA3E0FBEF2BFF32
:107CB400EE3AFEED39FDEC38FCA3122201900035BA
:107CC400E004F0027BF590002FE0FBE4FAF9F89071
:107CD400003AE0FCA3E0FDA3E0FEA3E0FF1220BB1A
:0F7CE40075CEA575CF5A0075CEA575CF5A000085
:017CF300226E
:087CF40090062FEFF0A3EDF064
:107CFC0075CEA575CF5A0075CEA575CF5A009006D6
:107D0C003A12220D00000000E490058FF090063529
:107D1C00F090062FE0FF900635E0C39F4003027DF4
:107D2C00F275CEA575CF5A0075CEA575CF5A0090B9
:107D3C00058FE060FAE490058FF075CEA575CF5AEB
:107D4C000075CEA575CF5A00900630E070047FD434
:107D5C0080027FD57E1012733D900631122201E411
:107D6C00FFFEFD7C80900631E0F8A3E0F9A3E0FA79
:107D7C00A3E0FBC312217E4024900631E0FCA3E07B
:107D8C00FDA3E0FEA3E0FF12214DEF2401FFE43E32
:107D9C00FEE43DFDE43CFC900631122201900631DC
:107DAC00E0FCA3E0FDA3E0FEA3E0FF900636122268
:107DBC000190063AE0FCA3E0FDA3E0FEA3E0FF90F7
:107DCC000636E0F8A3E0F9A3E0FAA3E0FBEF2BFF03
:107DDC00EE3AFEED39FDEC38FCA31222019006358B
:107DEC00E004F0027D1D90062FE0FBE4FAF9F89018
:107DFC00063AE0FCA3E0FDA3E0FEA3E0FF1220BBEB
:0F7E0C0075CEA575CF5A0075CEA575CF5A00005B
:017E1B002244
:108F9000E4121DED900037122201900033E0FCA393
:108FA000E0FDA3E0FEA3E0FFE4121DED90003B1204
:108FB0002201900033E0FCA3E0FDA3E0FEA3E0FF6C
:108FC000E4121DEDA804A905AA06AB07900037E03E
:108FD000FCA3E0FDA3E0FEA3E0FF121AE590003B36
:108FE000E0F8A3E0F9A3E0FAA3E0FB121CE3900091
:108FF0003F122201E4FFFE7D807C3F90003FE0F8BD
:10900000A3E0F9A3E0FAA3E0FB121AE9A804A9057A
:10901000AA06AB07E4FFFE7D807C3F121CE39000B4
:1090200043122201E4FFFE7D807CBF900043E0F804
:10903000A3E0F9A3E0FAA3E0FB121AE990004712BB
:109040002201E4FFFEFD7C4F900047E0F8A3E0F929
:0F905000A3E0FAA3E0FB121BDA12885E121E2BBC
:01905F0022EE
:0681790090002F1222010C
:10817F00E4900039F07F32FEFDFC900033E0F8A36D
:10818F00E0F9A3E0FAA3E0FBC312217E50037F00C6
:10819F002290002FE0FCA3E0FDA3E0FEA3E0FFA3ED
:1081AF00E0F8A3E0F9A3E0FAA3E0FBD312217E40AD
:1081BF004D90002FE0F8A3E0F9A3E0FAA3E0FBA3B2
:1081CF00E0FCA3E0FDA3E0FEA3E09BFFEE9AFEED33
:1081DF0099FDEC98FCE47BE87A03F9F812203090D3
:1081EF000033E0F8A3E0F9A3E0FAA3E0FB1220BB11
:1081FF00900037EEF0A3EFF0A37401F0804A9000E7
:10820F0033E0F8A3E0F9A3E0FAA3E0FB90002FE03E
:10821F00FCA3E0FDA3E0FEA3E0C39BFFEE9AFEEDFF
:10822F0099FDEC98FCE47BE87A03F9F81220309082
:10823F000033E0F8A3E0F9A3E0FAA3E0FB1220BBC0
:10824F00900037EEF0A3EFF0900037E0FEA3E0FFD1
:10825F007C0B7DC3122300E47BD07A07F9F8122040
:0C826F00BB900039E0B40104EF4480FF34
:01827B0022E0
:06805E0090002612220131
:1080640075CEA575CF5A0075CEA575CF5A00900070
:108074002AE0703CA312220D0000000090002BE0C7
:10808400FCA3E0FDA3E0FEA3E0FF9000437410F026
:10809400A374E8F012A00090002BE0FCA3E0FDA381
:1080A400E0FEA3E0FF9000437410F0A374ED803C65
:1080B40090002B12220D0000000090002BE0FCA386
:1080C400E0FDA3E0FEA3E0FF9000437410F0A3746E
:1080D400E9F012A00090002BE0FCA3E0FDA3E0FE79
:1080E400A3E0FF9000437410F0A374EEF012A0001C
:1080F40090002AE0FD7F02127BCCC004C005C006BC
:10810400C007900026E0FCA3E0FDA3E0FEA3E0FF8F
:10811400900033122201D007D006D005D004128F6C
:108124009090002B12220175CEA575CF5A0075CE02
:10813400A575CF5A0090002AE07011A3E0FCA3E0DB
:10814400FDA3E0FEA3E0FF900559801190002BE011
:10815400FCA3E0FDA3E0FEA3E0FF90056912220169
:1081640012C20C125FB475CEA575CF5A0075CEA598
:0481740075CF5A0069
:0181780022E4
:068DDC00900026122201A6
:108DE200C20075CEA575CF5A0075CEA575CF5A00B3
:108DF20090002B12220D0000000090002AE0701754
:108E0200A3E0FCA3E0FDA3E0FEA3E0FF9000437417
:108E120010F0A374ED801790002BE0FCA3E0FDA3FB
:108E2200E0FEA3E0FF9000437410F0A374EEF01292
:108E3200A00090002AE0FD7F03127BCCC004C00595
:108E4200C006C007900026E0FCA3E0FDA3E0FEA35D
:108E5200E0FF900033122201D007D006D005D004E3
:108E6200128179E4FCFDFE90002B12220175CEA541
:108E720075CF5A0075CEA575CF5A0090002AE070C2
:108E820011A3E0FCA3E0FDA3E0FEA3E0FF900561D7
:108E9200801190002BE0FCA3E0FDA3E0FEA3E0FF25
:108EA20090057112220112C20C125FB475CEA57523
:0A8EB200CF5A0075CEA575CF5A0007
:018EBC002293
:06847B0090002612220110
:1084810075CEA575CF5A0075CEA575CF5A0090004F
:108491002B12220D0000000090002AE07017A3E0CB
:1084A100FCA3E0FDA3E0FEA3E0FF9000437428F0ED
:1084B100A3747B801790002BE0FCA3E0FDA3E0FEFA
:1084C100A3E0FF9000437428F0A3747CF012A00095
:1084D10075CEA575CF5A0075CEA575CF5A00E4901B
:1084E100058FF090058FE060FAE490058FF0900021
:1084F1002AE0FD7F02127BCCC004C005C006C00784
:10850100900026E0FCA3E0FDA3E0FEA3E0FF9000C5
:1085110033122201D007D006D005D004128179E4AC
:10852100FCFDFE90002B12220175CEA575CF5A00DD
:1085310075CEA575CF5A0090002AE07011A3E0FC1A
:10854100A3E0FDA3E0FEA3E0FF90055D8011900094
:108551002BE0FCA3E0FDA3E0FEA3E0FF90056D127C
:10856100220112C20C125FB475CEA575CF5A0075E7
:06857100CEA575CF5A00F3
:0185770022E1
:0602E900900667122201DD
:1002EF0075CEA575CF5A0075CEA575CF5A007F0173
:1002FF00123A6DE490058FF090058FE060FAE4906C
:10030F00058FF075CEA575CF5A0075CEA575CF5A4E
:10031F0000F090058FE060FAE490058FF075CEA5A0
:10032F0075CF5A0075CEA575CF5A0090066BE07049
:10033F0048FD7F03127CF490066C12220190066C2C
:10034F00E0FCA3E0FDA3E0FEA3E0FFE4121DEDC07F
:10035F0004C005C006C007900667E0FCA3E0FDA33C
:10036F00E0FEA3E0FFE4121DEDD003D002D001D0D8
:10037F0000121CE390057980477D017F03127CF406
:10038F0090066C12220190066CE0FCA3E0FDA3E046
:10039F00FEA3E0FFE4121DEDC004C005C006C007B8
:1003AF00900667E0FCA3E0FDA3E0FEA3E0FFE412EC
:1003BF001DEDD003D002D001D000121CE390057DBB
:1003CF0012220175CEA575CF5A0075CEA575CF5ADD
:0E03DF0000E4FF123A6D12C20C125FB400006F
:0103ED0022ED
:1036010090000912220D0000000020AF03023A6C65
:103611009005907455F090AA1B1221E190000D12B3
:103621002201E47F19FEFDFC90000DE0F8A3E0F912
:10363100A3E0FAA3E0FB122030E47B0AFAF9F812C6
:1036410020BB900012122201E47F46FEFDFC900097
:103651000DE0F8A3E0F9A3E0FAA3E0FB122030E4C7
:103661007B64FAF9F81220BB900016122201E47F64
:1036710023FEFDFC90000DE0F8A3E0F9A3E0FAA31E
:10368100E0FB122030E47B64FAF9F81220BB9000D1
:103691001A122201E47F03FEFDFC90000DE0F8A365
:1036A100E0F9A3E0FAA3E0FB122030E47B64FAF92D
:1036B100F81220BB90001E12220175CEA575CF5ABB
:1036C1000075CEA575CF5A00E4FD7F04127BCC9026
:1036D1000022122201900012E0FCA3E0FDA3E0FE13
:1036E100A3E0FF900022E0F8A3E0F9A3E0FAA3E051
:1036F100FBD312217E4008E4900011F002377F9045
:103701000016E0FCA3E0FDA3E0FEA3E0FF90002291
:10371100E0F8A3E0F9A3E0FAA3E0FBD312217E4095
:10372100089000117401F0805590001AE0FCA3E0AC
:10373100FDA3E0FEA3E0FF900022E0F8A3E0F9A3DF
:10374100E0FAA3E0FBD312217E400890001174023D
:10375100F0802B90001EE0FCA3E0FDA3E0FEA3E0BF
:10376100FFA3E0F8A3E0F9A3E0FAA3E0FBD3122161
:103771007E90001140057403F080037408F09000FE
:1037810011E0702390055912220D0000000012C2B1
:103791000C125FB475CEA575CF5A0075CEA575CF45
:1037A1005A007FA012BD8A900011E06401600302FB
:1037B10039DA90000DE0FCA3E0FDA3E0FEA3E0FFF9
:1037C100E490002AF012805E90000512220D0000A4
:1037D1000000E4900000F07F1E7E0012C8997FD4A3
:1037E1007E1012733D900001122201E4FFFEFD7C68
:1037F10080900001E0F8A3E0F9A3E0FAA3E0FBC3A5
:1038010012217E4024900001E0FCA3E0FDA3E0FE34
:10381100A3E0FF12214DEF2401FFE43EFEE43DFD54
:10382100E43CFC900001122201900005E0FCA3E0C1
:10383100FDA3E0FEA3E0FF900001E0F8A3E0F9A3FF
:10384100E0FAA3E0FBEF2BFFEE3AFEED39FDEC3899
:10385100FCA312220175CEA575CF5A0075CEA575B0
:10386100CF5A00900000E004F0E0C3940850030236
:1038710037D8900005E0FCA3E0FDA3E0FEA3E0FF44
:10388100E47B08FAF9F81220BB900005122201909E
:103891000005E0FCA3E0FDA3E0FEA3E0FFE4121DB0
:1038A100EDC004C005C006C00790AA0F1221E1E4D3
:1038B100121DEDD003D002D001D000121CE39005FF
:1038C1008512220190000512220D00000000E490F3
:1038D1000000F07F1E7E0012C8997FD37E10127304
:1038E1003D900001122201E4FFFEFD7C8090000169
:1038F100E0F8A3E0F9A3E0FAA3E0FBC312217E40C4
:1039010024900001E0FCA3E0FDA3E0FEA3E0FF1290
:10391100214DEF2401FFE43EFEE43DFDE43CFC903B
:103921000001122201900005E0FCA3E0FDA3E0FEEE
:10393100A3E0FF900001E0F8A3E0F9A3E0FAA3E01F
:10394100FBEF2BFFEE3AFEED39FDEC38FCA3122222
:103951000175CEA575CF5A0075CEA575CF5A0090C9
:103961000000E004F0E0C3940850030238D4900052
:1039710005E0FCA3E0FDA3E0FEA3E0FFE47B08FA81
:10398100F9F81220BB900005122201900005E0FC1D
:10399100A3E0FDA3E0FEA3E0FFE4121DEDC004C01F
:1039A10005C006C00790AA0B1221E1E4121DEDD05B
:1039B10003D002D001D000121CE390058112220134
:1039C10012C20C125FB475CEA575CF5A0075CEA583
:1039D10075CF5A007FA112BD8A900011E0B4023860
:1039E10090000DE0FCA3E0FDA3E0FEA3E0FFE47B7B
:1039F10002FAF9F81220BB90000D12220190000D7D
:103A0100E0FCA3E0FDA3E0FEA3E0FFE490002AF0C8
:103A110012847B7FA212BD8A900011E0B40338901A
:103A2100000DE0FCA3E0FDA3E0FEA3E0FFE47B14B6
:103A3100FAF9F81220BB90000D12220190000DE05E
:103A4100FCA3E0FDA3E0FEA3E0FFE490002AF01256
:103A51008DDC7FA312BD8A900011E0B4080812BF6B
:0B3A6100287FA812BD8AE4900590F0B9
:013A6C002237
:10C27D004D05AB001F1C1F1E1F1E1F1F1E1F1E1F47
:10C28D005A059100000000001F003B005A00780085
:10C29D009700B500D400F301110130014E4705B8E8
:07C2AD00000000010109047B
:10C7DE00EFD3946340037F0022EF75F00A84C454B4
:0CC7EE00F0FEEF75F00A84EE25F0FF224B
:0CC83000E0FBA3E0FAA3E0F9121EACFF4D
:0FC83C00EFC4540F75F00AA4FEEF540F2EFF2225
:10AFC9009000BBEBF0A3EAF0A3E9F0A3ECF0A3ED4A
:10AFD900F0D3940FEC942740169000BBE0FBA3E05C
:10AFE900FAA3E0F9900001E4121F26E4021F14906D
:10AFF90000BEE0FEA3E0FF7C007D64121F5A12C769
:10B00900DE9000BBE0FBA3E0FAA3E0F9EF121F1406
:10B019009000BEE0FEA3E0FF7C007D64121F5AAFE2
:10B029000512C7DE9000BBE0FBA3E0FAA3E0F990AC
:07B039000001EF121F2622A7
:10C6FD00900001121EC5FF12C83CEFFD7C00C00466
:10C70D00C00512C8387E007D64121F48D0E02FFF8F
:05C71D00D0E03EFE2209
:109743009000B4EBF0A3EAF0A3E9F0A31222017FA7
:10975300FF7EE07DF57C059000B7E0F8A3E0F9A378
:10976300E0FAA3E0FBD312217E40249000B4E0FB97
:10977300A3E0FAA3E0F9900003E4121F269000028D
:10978300E4121F26900001E4121F26E4021F14E4D2
:109793007B107A27F9F89000B7E0FCA3E0FDA3E083
:1097A300FEA3E0FF1220BBAD07AC069000B4E0FBC4
:1097B300A3E0FAA3E0F912AFC99000B4E0FBA3E081
:1097C300FAA3E02402F9E43AFAC003C002C001E4B8
:1097D3007B107A27F9F8A3E0FCA3E0FDA3E0FEA346
:1097E300E0FF1220BBAE02AF03AD07AC06D001D041
:0797F30002D00312AFC922EE
:1092C20090068FEBF0A3EAF0A3E9F090068FE0FBA3
:1092D200A3E0FAA3E0F9900002121EC5FF12C83CF7
:1092E2007E007C007D64122300C004C005C006C05D
:1092F2000790068FE0FBA3E0FAA3E0F990000312C7
:109302001EC5FF12C83CE4FCFDFED003D002D00112
:10931200D000EB2FFFEE3AFEED39FDEC38FCC00435
:10932200C005C006C00790068FE0FBA3E0FAA3E0E9
:10933200F9900001121EC5FF12C83C7E007C277DF9
:1093420010122300D003D002D001D000EF2BFFEE89
:109352003AFEED39FDEC38FCC004C005C006C0077A
:1093620090068F12C830E4FCFDFE7B407A42790FF2
:10937200F8122030D003D002D001D000EF2BFFEE44
:099382003AFEED39FDEC38FC2245
:10BB8100900692EBF0A3EAF0A3E9F0900692E0FBB5
:10BB9100A3E0FAA3E0F97401121EF2121EACFF54E5
:10BBA1000FC3940A4025EF54F0121F14900692E03F
:10BBB100FBA3E0FAA3E0F97410121EF2121EACC44A
:0CBBC100540FC3940A4004E4121F142225
:0BBEE500900695EBF0A3EAF0A3E9F053
:10BEF000EDD39400402FE4FE900695E0FBA3E0FA1A
:10BF0000A3E0F912BB81900695E0FBA3E0FAA3E061
:10BF1000F9121EAC700F1D90069674FFF5F0121FFB
:07BF2000E57E0180CBAF06B6
:01BF270022F7
:10C46100D3ED9400EC9400401F121EACFF90021813
:10C47100E02FF0900217E03400F0740129F9E43A5A
:10C48100FAED1D70DB1C80D8900217E0FEA3E0FFDF
:01C491002288
:10C63F00D3ED9400EC94004018121EACFF90003E16
:10C64F00E02FF0740129F9E43AFAED1D70E21C8035
:07C65F00DF90003EE0FF2226
:10C66600E4FF121EACFE540FD394095007EE54F0AB
:10C67600949040037F0022740129F9E43AFA0FEFFF
:06C68600C39D40DE7F01B0
:01C68C00228B
:10A3A000900002121EC5FF12C83C90018FE4F0A37A
:10A3B000EFF0900001121EC5FF12C83C90018DE421
:10A3C000F0A3EFF012C838EFFD7C0090018EE0257D
:10A3D000E0FF90018DE033FE74912FF58274053E0D
:10A3E000F583E0FEA3E02DFBEC3EFA90018FE0FE4A
:10A3F000A3E0FF0C7D6D121F48EF2BFDEE3AFC90A1
:10A40000018FE0FAA3E0FBAE027802CEC313CE13B5
:10A41000D8F92DFFEC3ECF2401CF3400FEEB5403DE
:10A420007014D390018EE0940290018DE09400505E
:06A4300005EF1F70011E84
:01A436002203
:10BC650090018AEBF0A3EAF0A3E9F090018AE0FBEA
:10BC7500A3E0FAA3E02401F9E43AFA12A3A07C00B8
:10BC85007D18122300A804C005C006C00790018ACC
:10BC950012C830E4FCFDFED003D002D001EB2FFF2B
:0ABCA500EE3AFEED39FDEC38FC220A
:10BBCD00900187EBF0A3EAF0A3E9F0900187E0FB89
:10BBDD00A3E0FAA3E02401F9E43AFA12BC65E47B90
:10BBED003CFAF9F8122030A804C005C006C0079031
:10BBFD00018712C830E4FCFDFED003D002D001EB6A
:0CBC0D002FFFEE3AFEED39FDEC38FC2272
:10BC1900900184EBF0A3EAF0A3E9F0900184E0FB42
:10BC2900A3E0FAA3E02401F9E43AFA12BBCDE47BDC
:10BC39003CFAF9F8122030A804C005C006C00790E4
:10BC4900018412C830E4FCFDFED003D002D001EB20
:0CBC59002FFFEE3AFEED39FDEC38FC2226
:10876E00121EACD3940640037F0022900001121E0D
:10877E00C5FED3949940037F0022EE540FD3940983
:10878E0040037F0022900002121EC5FFD3941250A8
:10879E0006EFC3940150037F0022900002121EC503
:1087AE00FE540FD3940940037F0022900003121E43
:1087BE00C5C39401403BEEB40213900001121EC5D6
:1087CE00FF12C83CEF540370047F298019900002F9
:1087DE00121EC5FF12C83C74AB2FF582E43405F5AA
:1087EE0083E0FF12C7DE900003121EC5FED39F402A
:1087FE00037F0022EE540FD3940940037F00229092
:10880E000004121EC5FED3942340037F0022EE54B3
:10881E000FD3940940037F0022900005121EC5FE5F
:10882E00D3945940037F0022EE540FD39409400392
:10883E007F0022900006121EC5FED3945940037F7E
:10884E000022EE540FD3940940037F00227F0122B1
:10C24500ED25E0FFEFD39400402B900679E0FEEF5B
:10C25500D39E500122EF30E011121EAC540F600145
:10C2650022740129F9E43AFA8008121EAC54F060F0
:07C2750001221F80CF7F01B1
:01C27C00229F
:10C1970090064DE0FBA3E475F001121FFBA9F0FA2E
:04C1A700121EACFFB9
:10C1AB00E4FEEFC39430400CEFD394395006EF24E8
:10C1BB00D0FE8010EFC39441400AEFD39446500455
:06C1CB00EF24C9FEAF06DF
:01C1D100224B
:10C57100FAEBF0A3EAF0A3E9F0121EACC4540FFFEA
:10C58100E4FEEFC3940A5006EF2430FE800AEFC3A5
:0AC59100940A4004EF2437FEAF06C1
:01C59B00227D
:0BB3DF0090064AEBF0A3EAF0A3E9F0AF
:10B3EA00900650E0C313FDEDD39400405590064AF1
:10B3FA00E0FBA3E0FAA3E0F9EDFF7E00E92FF9EE06
:10B40A003AFAE924FFF9EA34FFFA900651EBF0A37D
:10B41A00EAF0A3E9F012C197EFC454F0FF90065185
:10B42A00E0FBA3E0FAA3E0F9EF121F1412C1979010
:10B43A000651E0FBA3E0FAA3E0F9EF121EF21D02A7
:02B44A00B3F15C
:01B44C0022DD
:0BB2FD0090009EEBF0A3EAF0A3E9F044
:10B308009000A4E0C313F0E4FD9000A4E0FFEDC3B7
:10B318009F505290009EE0FBA3E0FAA3E0F9EDFFF6
:10B328007E00E92FF9EE3AFA9000A5EBF0A3EAF0D7
:10B33800A3E9F09000A112C19AEFC454F0FF900065
:10B34800A5E0FBA3E0FAA3E0F9EF121F149000A117
:10B3580012C19A9000A5E0FBA3E0FAA3E0F9EF126E
:05B368001EF20D80A49F
:01B36D0022BD
:0BAF5100900654EBF0A3EAF0A3E9F037
:10AF5C0090065AE0FDEDD394004061900657E0FB5B
:10AF6C00A3E0FAA3E0F9EDFF7E00E92FF9EE3AFA3F
:10AF7C00E924FFF9EA34FF90065B12C57190065480
:10AF8C00E0FBA3E475F001121FFBA9F0FAEF121F0E
:10AF9C001490065BE0FBA3E0FAA3E0F9121EAC549C
:10AFAC000FFF12C581900654E0FBA3E475F001126B
:0CAFBC001FFBA9F0FAEF121F141D809972
:01AFC8002266
:0BB36E00900181EBF0A3EAF0A3E9F0EE
:10B37900E4FD900187E0FFEDC39F5059900184E0FF
:10B38900FBA3E0FAA3E0F9EDFF7E00E92FF9EE3A1D
:10B3990090018812C571900181E0FBA3E475F00169
:10B3A900121FFBA9F0FAEF121F14900188E0FBA30A
:10B3B900E0FAA3E0F9121EAC540FFF12C581900107
:10B3C90081E0FBA3E475F001121FFBA9F0FAEF126B
:05B3D9001F140D809D12
:01B3DE00224C
:0BC42F0090067AEBF0A3EAF0A3E9F01E
:10C43A00E4FFAE0590067EE0FDEED39D501890060F
:10C44A007AE0FBA3E0FAA3E0F98E82758300121E5C
:06C45A00C56FFF0E80DE3D
:01C4600022B9
:0BAE5F009002ACEBF0A3EAF0A3E9F0D6
:10AE6A009002B2E014FF3395E0FE9002AD8FF0122B
:10AE7A001FE59002B0EE8FF0121FE5E4FF9002B2D8
:10AE8A00E0FEEFC39E50449002AFE0FBA3E0FAA3BA
:10AE9A00E0F9121EACFE9002ACE0FBA3E0FAA3E0DC
:10AEAA00F9121EACFDD39E40037F0122EDC39E50D2
:10AEBA00037FFF229002AD74FFF5F0121FE59002A6
:0DAECA00B074FFF5F0121FE50F80B27F009D
:01AED7002258
:0E9B7300900039EBF0A3EAF0A3E9F0A3EDF0C7
:109B8100E0C31390003EF0E4F090003CE0FFC3130B
:109B9100FE90003EE0C39E4003029C1F900039E00E
:109BA100FBA3E0FAA3E0F990003EE0FEF5827583A5
:109BB10000121EC590003DF0EEFD7E00E92FF9EE8A
:109BC1003AFAE924FFF9EA34FFFAC3E99DF9EA9484
:109BD10000FA121EACFF900039A3E0FAA3E0F9905D
:109BE100003EE0FEF582758300EF121F2690003DD6
:109BF100E0FFEEFD90003CE075830029F9E5833A32
:109C0100FAE924FFF9EA34FFFAC3E99DF9EA94007D
:0E9C1100FAEF121F1490003EE004F0029B8A4E
:019C1F002222
:10B9160090021DEBF0A3EAF0A3E9F0D3900224E035
:10B926009400900223E094004042900220E0FBA3A2
:10B93600E0FAA3E0F9121EACFF90021DE0FBA3E0C3
:10B94600FAA3E0F9EF121F1490021EE475F001123B
:10B956001FE5900221E475F001121FE5900224E034
:0DB9660024FFF0900223E034FFF080AF22B8
:10C59C00D390017EE0940090017DE09400401BED6F
:10C5AC00121F14740129F9E43AFA90017EE024FF79
:0BC5BC00F090017DE034FFF080D622FB
:10C7C000D3ED9400EC94004014E4F5F012201174C1
:0EC7D0000229F9E43AFAED1D70E61C80E3221E
:10C84B00D3ED9400EC94004011E4121F140429F969
:0BC85B00E43AFAED1D70E91C80E622B3
:10B12C00900048EBF0A3EAF0A3E9F0A3ECF0A3ED58
:01B13C00F022
:10B13D00E4A3F0A3F0FFFED390004CE09F90004BF2
:10B14D00E09E4048900048E0FBA3E0FAA3E0F98FB1
:10B15D00828E83121EC5FDC4540FFCBC0F02802CC1
:10B16D0090004EE004F0700690004DE004F0ED54B8
:10B17D000FFDBD0F02801590004EE004F07006909B
:10B18D00004DE004F00FBF00010E80AB90004DE0CC
:04B19D00FEA3E0FF2E
:01B1A100228B
:0BB97300900698EBF0A3EAF0A3E9F0C7
:10B97E00ED14FFEFD394004035EF24FFFDE434FFC8
:10B98E00FC900698E0FBA3E0FAA3E0F98D828C838D
:10B99E00121EC5C454F0FE8F82758300121EC5C4DC
:10B9AE00540F2E8F82758300121F261F80C590069E
:10B9BE0098E0FBA3E0FAA3E0F9121EACC4540F0208
:02B9CE001F1444
:0DAED80090069BEBF0A3EAF0A3E9F0AC05B7
:10AEE500E4FDEC14FFEDC39F5034ED2401FFE43382
:10AEF500FE90069BE0FBA3E0FAA3E0F98F828E8328
:10AF0500121EC5C4540FFF8D82758300121EC5C461
:10AF150054F02F8D82758300121F260D80C4EC24FA
:10AF2500FFFFE434FFFE90069BE0FBA3E0FAA3E0FD
:10AF3500F98F828E83121EC5C454F0FFEC7C002469
:0CAF4500FFF582EC34FFF583EF021F26BD
:10C1D200900039EEF0A3EFF0A3ECF0A3EDF0AF0383
:10C1E2001BEF602590003BE475F001121FFB85F008
:10C1F20082F583E493FF900039E475F001121FFB8E
:0AC2020085F082F583EFF080D5226D
:0AC99F00AE071FEE60030080F722D0
:0AC99400AE071FEE6004000080F6FD
:01C99E002276
:10C89900D3EF9400EE9400400FE4FD000DEDB4E6F3
:08C8A900FAEF1F70EB1E80E89E
:01C8B1002264
:02C74400AC0740
:10C74600E4FBEBC39C501875CEA575CF5A0075CE89
:0FC75600A575CF5A007FE87E0312C8990B80E3C8
:01C7650022B1
:10C5C700EF1FAC0670011E4C601EE4FDFC0DBD00A4
:10C5D700010CBC01F8BD90F575CEA575CF5A007555
:08C5E700CEA575CF5A0080D8E3
:01C5EF002229
:08C9C2000400019E004E0C026E
:085A520090009EEEF0A3EFF0BE
:105A5A00E4A3F09000A0E0FDC394014003025AE9D8
:105A6A00E0FF75F008A424C2F582E434C9F583E4A2
:105A7A0093FB7401939000A2CBF0A3EBF0EF75F0C7
:105A8A0008A424C8F582E434C9F583E493FF7E00B0
:105A9A00ED75F008A424C6F582E434C9F583E493CD
:105AAA00FC740193FD121F489000A2E0FCA3E0FDE4
:105ABA00C390009FE09D90009EE09C40199000A337
:105ACA00E02FFF9000A2E03EFEC390009FE09F906F
:105ADA00009EE09E40099000A0E004F0025A5D900A
:105AEA0000A0E0FF75F008A424C4F582E434C9F5E7
:105AFA0083E493FC740193FD7B017A0079A19002FF
:105B0A0017E4F0A304F0EF75F008A424C9F582E4C1
:105B1A0034C9F583E493900219F012A56E9000A09F
:105B2A00E075F008A424C8F582E434C9F583E49347
:105B3A00FF9000A1E0C39F4002E4F09000A0E0FBC8
:105B4A0075F008A424C2F582E434C9F583E493FC11
:105B5A00740193FDC390009FE09DFE90009EE09C1F
:105B6A009000A2F0A3CEF0EB75F008A424C6F5824B
:105B7A00E434C9F583E493FC740193FD9000A2E038
:105B8A00FEA3E0FF121F5A9000A0E075F008A424BB
:105B9A00C6F582E434C9F583E47401938FF0A4FE58
:105BAA009000A2A3E0C39EFB9000A1E0FEC39F5019
:105BBA001E9000A0E075F008A424C8F582E434C958
:105BCA00F583E493C39FFF9000A1E02FF08007C301
:105BDA00EE9F9000A1F09000A0E0FA75F008A424CE
:105BEA00C6F582E434C9F583E493FC740193FD900D
:105BFA0000A1E0FF7E00121F48EA75F008A424C243
:105C0A00F582E434C9F5837401932FFFE4933EFED1
:0F5C1A007C00EF2BFFEC3EFE90009EF0A3EFF01E
:015C29002258
:0564C400900014EFF050
:1064C9007B017A0079187D4C7C0012C84B9000142E
:1064D900E075F008A424C4F582E434C9F583E49393
:1064E900FC740193FD7B017A007917900217E4F09F
:1064F900A304F0A304F012A56E900017E004F09035
:106509000014E0FB75F008A424C8F582E434C9F549
:1065190083E49314FF900017E0D39F4002E4F090C6
:106529000014E0FA75F008A424C6F582E434C9F52C
:1065390083E493FC740193FD900017E0FF7E001241
:106549001F48EA75F008A424C2F582E434C9F5832A
:106559007401932FFFE4933E900015F0A3EFF0EB45
:1065690075F008A424C4F582E434C9F583E493FEE4
:10657900740193FF7B017A00791790017EE4F0A3FF
:1065890004F0A304F0127F41900014E06003026656
:1065990056900629E0900018F090062AE09000191C
:1065A900F090062BE090001AF090062CE090001B6A
:1065B900F090062DE090001CF090062EE090001D52
:1065C900F07B017A00791890017EE4F0A37406F05B
:1065D900A37402F07F9F7E01127F41900220740113
:1065E900F0A37405F0A37438F0A3E4F0A3741EF0CB
:1065F9007B017A00791E12B9167B017A00793C90E9
:106609000217E4F0A37428F0A37402F07D207C0043
:1066190012A56E900015E0FEA3E0FF7B017A0079D8
:1066290018900014E075F008A424C6F582E434C972
:10663900F58374019324FEFCE49334FF90017EF00A
:10664900A3CCF0A37402F0127F4102BD4112C939F3
:01665900221E
:10A4370090062DE0600302A4CD7B017A007900909D
:10A447000217E4F0A37402F0A3F07D4C7C0012A580
:10A457006E900000E0FF12C83CEF75F018A4FFAE45
:10A46700F0C006C007900001E0FF12C83CEFFDD026
:10A47700E02DFED0E03400900002F0A3CEF090066D
:10A487002BE0FF12C83CEF75F018A4FFAEF0C00632
:10A49700C00790062CE0FF12C83CEFFDD0E02DFE70
:10A4A700D0E03400900004F0A3CEF0900002E0FE6C
:10A4B700A3E0FFC3900005E09FFF900004E09E4FDC
:06A4C7007004FF1264C4E2
:01A4CD00226C
:10665A007B017A007900900217E4F0A37406F0A394
:10666A007402F07D9F7C0112A56E900000E0FF127B
:10667A00C83CEF75F00CA4FFAEF0C006C00790004E
:10668A0001E0FF12C83CEFFDD0E02DFED0E034005F
:10669A00900008F0A3CEF0900629E0FF12C83CEF64
